{
  "contractName": "Election",
  "abi": [
    {
      "inputs": [],
      "stateMutability": "nonpayable",
      "type": "constructor"
    },
    {
      "anonymous": false,
      "inputs": [
        {
          "indexed": true,
          "internalType": "uint256",
          "name": "candidateId",
          "type": "uint256"
        }
      ],
      "name": "votedEvent",
      "type": "event"
    },
    {
      "inputs": [
        {
          "internalType": "uint256",
          "name": "",
          "type": "uint256"
        }
      ],
      "name": "candidates",
      "outputs": [
        {
          "internalType": "uint256",
          "name": "id",
          "type": "uint256"
        },
        {
          "internalType": "string",
          "name": "CfirstName",
          "type": "string"
        },
        {
          "internalType": "string",
          "name": "ClastName",
          "type": "string"
        },
        {
          "internalType": "string",
          "name": "CidNumber",
          "type": "string"
        },
        {
          "internalType": "uint256",
          "name": "voteCount",
          "type": "uint256"
        }
      ],
      "stateMutability": "view",
      "type": "function"
    },
    {
      "inputs": [],
      "name": "candidatesCount",
      "outputs": [
        {
          "internalType": "uint256",
          "name": "",
          "type": "uint256"
        }
      ],
      "stateMutability": "view",
      "type": "function"
    },
    {
      "inputs": [],
      "name": "manager",
      "outputs": [
        {
          "internalType": "address",
          "name": "",
          "type": "address"
        }
      ],
      "stateMutability": "view",
      "type": "function"
    },
    {
      "inputs": [
        {
          "internalType": "uint256",
          "name": "",
          "type": "uint256"
        }
      ],
      "name": "users",
      "outputs": [
        {
          "internalType": "string",
          "name": "firstName",
          "type": "string"
        },
        {
          "internalType": "string",
          "name": "lastName",
          "type": "string"
        },
        {
          "internalType": "string",
          "name": "idNumber",
          "type": "string"
        },
        {
          "internalType": "string",
          "name": "email",
          "type": "string"
        },
        {
          "internalType": "string",
          "name": "password",
          "type": "string"
        },
        {
          "internalType": "address",
          "name": "add",
          "type": "address"
        }
      ],
      "stateMutability": "view",
      "type": "function"
    },
    {
      "inputs": [],
      "name": "usersCount",
      "outputs": [
        {
          "internalType": "uint256",
          "name": "",
          "type": "uint256"
        }
      ],
      "stateMutability": "view",
      "type": "function"
    },
    {
      "inputs": [
        {
          "internalType": "address",
          "name": "",
          "type": "address"
        }
      ],
      "name": "voters",
      "outputs": [
        {
          "internalType": "bool",
          "name": "",
          "type": "bool"
        }
      ],
      "stateMutability": "view",
      "type": "function"
    },
    {
      "inputs": [
        {
          "internalType": "string",
          "name": "_CfirstName",
          "type": "string"
        },
        {
          "internalType": "string",
          "name": "_ClastName",
          "type": "string"
        },
        {
          "internalType": "string",
          "name": "_CidNumber",
          "type": "string"
        }
      ],
      "name": "addCandidate",
      "outputs": [],
      "stateMutability": "nonpayable",
      "type": "function"
    },
    {
      "inputs": [
        {
          "internalType": "uint256",
          "name": "_candidateId",
          "type": "uint256"
        }
      ],
      "name": "vote",
      "outputs": [],
      "stateMutability": "nonpayable",
      "type": "function"
    },
    {
      "inputs": [
        {
          "internalType": "string",
          "name": "_firstName",
          "type": "string"
        },
        {
          "internalType": "string",
          "name": "_lastName",
          "type": "string"
        },
        {
          "internalType": "string",
          "name": "_idNumber",
          "type": "string"
        },
        {
          "internalType": "string",
          "name": "_email",
          "type": "string"
        },
        {
          "internalType": "string",
          "name": "_password",
          "type": "string"
        }
      ],
      "name": "addUser",
      "outputs": [],
      "stateMutability": "nonpayable",
      "type": "function"
    }
  ],
  "bytecode": "0x6080604052348015600e575f5ffd5b50335f5f6101000a81548173ffffffffffffffffffffffffffffffffffffffff021916908373ffffffffffffffffffffffffffffffffffffffff16021790555061154a8061005b5f395ff3fe608060405234801561000f575f5ffd5b5060043610610091575f3560e01c8063481c6a7511610064578063481c6a75146101385780636ba13a8214610156578063a3ec138d14610174578063ad71f8dc146101a4578063b37a3d82146101c057610091565b80630121b93f146100955780632d35a8a2146100b15780633477ee2e146100cf578063365b98b214610103575b5f5ffd5b6100af60048036038101906100aa9190610b18565b6101dc565b005b6100b9610368565b6040516100c69190610b52565b60405180910390f35b6100e960048036038101906100e49190610b18565b61036e565b6040516100fa959493929190610bdb565b60405180910390f35b61011d60048036038101906101189190610b18565b610532565b60405161012f96959493929190610c80565b60405180910390f35b610140610827565b60405161014d9190610d02565b60405180910390f35b61015e61084b565b60405161016b9190610b52565b60405180910390f35b61018e60048036038101906101899190610d45565b610851565b60405161019b9190610d8a565b60405180910390f35b6101be60048036038101906101b99190610ecf565b61086e565b005b6101da60048036038101906101d59190610f73565b6109ab565b005b60015f3373ffffffffffffffffffffffffffffffffffffffff1673ffffffffffffffffffffffffffffffffffffffff1681526020019081526020015f205f9054906101000a900460ff1615610266576040517f08c379a000000000000000000000000000000000000000000000000000000000815260040161025d906110c0565b60405180910390fd5b5f8111801561027757506003548111155b6102b6576040517f08c379a00000000000000000000000000000000000000000000000000000000081526004016102ad90611128565b60405180910390fd5b6001805f3373ffffffffffffffffffffffffffffffffffffffff1673ffffffffffffffffffffffffffffffffffffffff1681526020019081526020015f205f6101000a81548160ff02191690831515021790555060025f8281526020019081526020015f206004015f81548092919061032e90611173565b91905055505f819050817ffff3c900d938d21d0990d786e819f29b8d05c1ef587b462b939609625b684b1660405160405180910390a25050565b60035481565b6002602052805f5260405f205f91509050805f015490806001018054610393906111e7565b80601f01602080910402602001604051908101604052809291908181526020018280546103bf906111e7565b801561040a5780601f106103e15761010080835404028352916020019161040a565b820191905f5260205f20905b8154815290600101906020018083116103ed57829003601f168201915b50505050509080600201805461041f906111e7565b80601f016020809104026020016040519081016040528092919081815260200182805461044b906111e7565b80156104965780601f1061046d57610100808354040283529160200191610496565b820191905f5260205f20905b81548152906001019060200180831161047957829003601f168201915b5050505050908060030180546104ab906111e7565b80601f01602080910402602001604051908101604052809291908181526020018280546104d7906111e7565b80156105225780601f106104f957610100808354040283529160200191610522565b820191905f5260205f20905b81548152906001019060200180831161050557829003601f168201915b5050505050908060040154905085565b6004602052805f5260405f205f91509050805f018054610551906111e7565b80601f016020809104026020016040519081016040528092919081815260200182805461057d906111e7565b80156105c85780601f1061059f576101008083540402835291602001916105c8565b820191905f5260205f20905b8154815290600101906020018083116105ab57829003601f168201915b5050505050908060010180546105dd906111e7565b80601f0160208091040260200160405190810160405280929190818152602001828054610609906111e7565b80156106545780601f1061062b57610100808354040283529160200191610654565b820191905f5260205f20905b81548152906001019060200180831161063757829003601f168201915b505050505090806002018054610669906111e7565b80601f0160208091040260200160405190810160405280929190818152602001828054610695906111e7565b80156106e05780601f106106b7576101008083540402835291602001916106e0565b820191905f5260205f20905b8154815290600101906020018083116106c357829003601f168201915b5050505050908060030180546106f5906111e7565b80601f0160208091040260200160405190810160405280929190818152602001828054610721906111e7565b801561076c5780601f106107435761010080835404028352916020019161076c565b820191905f5260205f20905b81548152906001019060200180831161074f57829003601f168201915b505050505090806004018054610781906111e7565b80601f01602080910402602001604051908101604052809291908181526020018280546107ad906111e7565b80156107f85780601f106107cf576101008083540402835291602001916107f8565b820191905f5260205f20905b8154815290600101906020018083116107db57829003601f168201915b505050505090806005015f9054906101000a900473ffffffffffffffffffffffffffffffffffffffff16905086565b5f5f9054906101000a900473ffffffffffffffffffffffffffffffffffffffff1681565b60055481565b6001602052805f5260405f205f915054906101000a900460ff1681565b5f5f9054906101000a900473ffffffffffffffffffffffffffffffffffffffff1673ffffffffffffffffffffffffffffffffffffffff163373ffffffffffffffffffffffffffffffffffffffff16146108fc576040517f08c379a00000000000000000000000000000000000000000000000000000000081526004016108f390611287565b60405180910390fd5b60035f81548092919061090e90611173565b91905055506040518060a0016040528060035481526020018481526020018381526020018281526020015f81525060025f60035481526020019081526020015f205f820151815f0155602082015181600101908161096c9190611445565b5060408201518160020190816109829190611445565b5060608201518160030190816109989190611445565b5060808201518160040155905050505050565b60055f8154809291906109bd90611173565b91905055506040518060c001604052808681526020018581526020018481526020018381526020018281526020013373ffffffffffffffffffffffffffffffffffffffff1681525060045f60055481526020019081526020015f205f820151815f019081610a2b9190611445565b506020820151816001019081610a419190611445565b506040820151816002019081610a579190611445565b506060820151816003019081610a6d9190611445565b506080820151816004019081610a839190611445565b5060a0820151816005015f6101000a81548173ffffffffffffffffffffffffffffffffffffffff021916908373ffffffffffffffffffffffffffffffffffffffff1602179055509050505050505050565b5f604051905090565b5f5ffd5b5f5ffd5b5f819050919050565b610af781610ae5565b8114610b01575f5ffd5b50565b5f81359050610b1281610aee565b92915050565b5f60208284031215610b2d57610b2c610add565b5b5f610b3a84828501610b04565b91505092915050565b610b4c81610ae5565b82525050565b5f602082019050610b655f830184610b43565b92915050565b5f81519050919050565b5f82825260208201905092915050565b8281835e5f83830152505050565b5f601f19601f8301169050919050565b5f610bad82610b6b565b610bb78185610b75565b9350610bc7818560208601610b85565b610bd081610b93565b840191505092915050565b5f60a082019050610bee5f830188610b43565b8181036020830152610c008187610ba3565b90508181036040830152610c148186610ba3565b90508181036060830152610c288185610ba3565b9050610c376080830184610b43565b9695505050505050565b5f73ffffffffffffffffffffffffffffffffffffffff82169050919050565b5f610c6a82610c41565b9050919050565b610c7a81610c60565b82525050565b5f60c0820190508181035f830152610c988189610ba3565b90508181036020830152610cac8188610ba3565b90508181036040830152610cc08187610ba3565b90508181036060830152610cd48186610ba3565b90508181036080830152610ce88185610ba3565b9050610cf760a0830184610c71565b979650505050505050565b5f602082019050610d155f830184610c71565b92915050565b610d2481610c60565b8114610d2e575f5ffd5b50565b5f81359050610d3f81610d1b565b92915050565b5f60208284031215610d5a57610d59610add565b5b5f610d6784828501610d31565b91505092915050565b5f8115159050919050565b610d8481610d70565b82525050565b5f602082019050610d9d5f830184610d7b565b92915050565b5f5ffd5b5f5ffd5b7f4e487b71000000000000000000000000000000000000000000000000000000005f52604160045260245ffd5b610de182610b93565b810181811067ffffffffffffffff82111715610e0057610dff610dab565b5b80604052505050565b5f610e12610ad4565b9050610e1e8282610dd8565b919050565b5f67ffffffffffffffff821115610e3d57610e3c610dab565b5b610e4682610b93565b9050602081019050919050565b828183375f83830152505050565b5f610e73610e6e84610e23565b610e09565b905082815260208101848484011115610e8f57610e8e610da7565b5b610e9a848285610e53565b509392505050565b5f82601f830112610eb657610eb5610da3565b5b8135610ec6848260208601610e61565b91505092915050565b5f5f5f60608486031215610ee657610ee5610add565b5b5f84013567ffffffffffffffff811115610f0357610f02610ae1565b5b610f0f86828701610ea2565b935050602084013567ffffffffffffffff811115610f3057610f2f610ae1565b5b610f3c86828701610ea2565b925050604084013567ffffffffffffffff811115610f5d57610f5c610ae1565b5b610f6986828701610ea2565b9150509250925092565b5f5f5f5f5f60a08688031215610f8c57610f8b610add565b5b5f86013567ffffffffffffffff811115610fa957610fa8610ae1565b5b610fb588828901610ea2565b955050602086013567ffffffffffffffff811115610fd657610fd5610ae1565b5b610fe288828901610ea2565b945050604086013567ffffffffffffffff81111561100357611002610ae1565b5b61100f88828901610ea2565b935050606086013567ffffffffffffffff8111156110305761102f610ae1565b5b61103c88828901610ea2565b925050608086013567ffffffffffffffff81111561105d5761105c610ae1565b5b61106988828901610ea2565b9150509295509295909350565b7f596f75206861766520616c726561647920766f7465642e0000000000000000005f82015250565b5f6110aa601783610b75565b91506110b582611076565b602082019050919050565b5f6020820190508181035f8301526110d78161109e565b9050919050565b7f496e76616c69642063616e6469646174652049442e00000000000000000000005f82015250565b5f611112601583610b75565b915061111d826110de565b602082019050919050565b5f6020820190508181035f83015261113f81611106565b9050919050565b7f4e487b71000000000000000000000000000000000000000000000000000000005f52601160045260245ffd5b5f61117d82610ae5565b91507fffffffffffffffffffffffffffffffffffffffffffffffffffffffffffffffff82036111af576111ae611146565b5b600182019050919050565b7f4e487b71000000000000000000000000000000000000000000000000000000005f52602260045260245ffd5b5f60028204905060018216806111fe57607f821691505b602082108103611211576112106111ba565b5b50919050565b7f4163636573732064656e6965642e204f6e6c79206d616e616765722063616e205f8201527f706572666f726d207468697320616374696f6e2e000000000000000000000000602082015250565b5f611271603483610b75565b915061127c82611217565b604082019050919050565b5f6020820190508181035f83015261129e81611265565b9050919050565b5f819050815f5260205f209050919050565b5f6020601f8301049050919050565b5f82821b905092915050565b5f600883026113017fffffffffffffffffffffffffffffffffffffffffffffffffffffffffffffffff826112c6565b61130b86836112c6565b95508019841693508086168417925050509392505050565b5f819050919050565b5f61134661134161133c84610ae5565b611323565b610ae5565b9050919050565b5f819050919050565b61135f8361132c565b61137361136b8261134d565b8484546112d2565b825550505050565b5f5f905090565b61138a61137b565b611395818484611356565b505050565b5b818110156113b8576113ad5f82611382565b60018101905061139b565b5050565b601f8211156113fd576113ce816112a5565b6113d7846112b7565b810160208510156113e6578190505b6113fa6113f2856112b7565b83018261139a565b50505b505050565b5f82821c905092915050565b5f61141d5f1984600802611402565b1980831691505092915050565b5f611435838361140e565b9150826002028217905092915050565b61144e82610b6b565b67ffffffffffffffff81111561146757611466610dab565b5b61147182546111e7565b61147c8282856113bc565b5f60209050601f8311600181146114ad575f841561149b578287015190505b6114a5858261142a565b86555061150c565b601f1984166114bb866112a5565b5f5b828110156114e2578489015182556001820191506020850194506020810190506114bd565b868310156114ff57848901516114fb601f89168261140e565b8355505b6001600288020188555050505b50505050505056fea26469706673582212207cf210f64d0ae59632130a61e4198774bb27c8d8891784a5b873450ada68211964736f6c634300081e0033",
  "immutableReferences": {},
  "source": "//SPDX-License-Identifier: MIT\r\npragma solidity ^0.8.0;\r\n\r\ncontract Election {\r\n\r\n    address public manager;\r\n\r\n    struct Candidate {\r\n        uint id;\r\n        string CfirstName;\r\n        string ClastName;\r\n        string CidNumber;\r\n        uint voteCount;\r\n    }\r\n\r\n    mapping (address => bool) public voters;\r\n\r\n    mapping (uint => Candidate) public candidates;\r\n\r\n    uint public candidatesCount;\r\n\r\n    event votedEvent (\r\n        uint indexed candidateId\r\n    );\r\n\r\n\r\n    constructor () {\r\n        manager = msg.sender;\r\n    }\r\n\r\n    function addCandidate (string memory _CfirstName, string memory _ClastName, string memory _CidNumber) public restricted {\r\n        candidatesCount++;\r\n        candidates[candidatesCount] = Candidate(candidatesCount, _CfirstName, _ClastName, _CidNumber, 0);\r\n    }\r\n\r\n    modifier restricted () {\r\n        require(msg.sender == manager, \"Access denied. Only manager can perform this action.\");\r\n        _;\r\n    }\r\n\r\n\r\n    function vote (uint _candidateId) public {\r\n        require(!voters[msg.sender], \"You have already voted.\");\r\n\r\n        require(_candidateId > 0 && _candidateId <= candidatesCount, \"Invalid candidate ID.\");\r\n\r\n        voters[msg.sender] = true;\r\n\r\n        candidates[_candidateId].voteCount++;\r\n\r\n        uint candidateId = _candidateId;\r\n\r\n        emit votedEvent(_candidateId);\r\n    }\r\n\r\n    // Users\r\n    // Register\r\n    struct User {\r\n        string firstName;\r\n        string lastName;\r\n        string idNumber;\r\n        string email;\r\n        string password;\r\n        address add;\r\n    }\r\n\r\n    mapping (uint => User) public users;\r\n\r\n    uint public usersCount;\r\n\r\n    function addUser (string memory _firstName, string memory _lastName, string memory _idNumber, string memory _email, string memory _password) public {\r\n        usersCount++;\r\n        users[usersCount] = User(_firstName, _lastName, _idNumber, _email, _password, msg.sender);\r\n    }\r\n\r\n}\r\n",
  "sourcePath": "C:\\Users\\lenovo\\OneDrive\\Desktop\\blockchain-voting-system\\voting-system-s6\\contracts\\Election.sol",
  "compiler": {
    "name": "solc",
    "version": "0.8.30+commit.73712a01.Emscripten.clang"
  },
  "schemaVersion": "3.4.16",
  "updatedAt": "2025-05-17T23:06:52.896Z",
  "devdoc": {
    "kind": "dev",
    "methods": {},
    "version": 1
  },
  "userdoc": {
    "kind": "user",
    "methods": {},
    "version": 1
  }
}